:020000001329C2
:0E000600073083120313FD00FD0B07280800CE
:1000140083120313F801F9011030FC00710DF80D7F
:10002400F90D7408F8027508031C750FF90203181A
:1000340022287408F80775080318750FF9070310C8
:0A004400F00DF10DFC0B1028080070
:10004E00831203139F01C0309F042109F000700832
:10005E0083169F051F179F1783122F08F000F00DB0
:10006E007010F00D7010F00D701070089F041F14BA
:10007E0003201F151F1D4528000041281F101E08B4
:10008E00F100F00183161E08F0040030F1040800A0
:0E009E008312031323088A0022088200080040
:1000AC0083120313FB01FA01F9018030F800F10C03
:1000BC00F00C031C6A287408F90775080318750FEF
:1000CC00FA070318FB0A0310F01F72287408FA07CA
:1000DC0075080318750FFB07FB0CFA0CF90CF80CE0
:1000EC00031C5D287B08F3007A08F2007908F10004
:0600FC007808F000080086
:10010200FF3083120313A400FF30A500FF30A600C6
:10011200FF309F01C0309F042109F0007008831650
:0C0122009F051F179F1783121F14080071
:10012E00831603131208013EF000F1010318F10AC1
:10013E0083122B08F400F50156200630F2007008E9
:10014E00F4007108F50072080319B228F50CF40CCE
:10015E00F513FF3EAB280430F1007408F00071086F
:10016E000319BD28F00D7010FF3EB7283030700512
:10017E00F3007408F0007508F100F10CF00CF113A7
:10018E00F10CF00CF113700895000F309705730801
:04019E0097040800BA
:1001A200831603130711831212150C3097040800EB
:1001B20083120313AD01AE01AC0180302C06F000B6
:1001C2008030053A70020318F7282B08AF00272069
:1001D20070088312AD0771080318013EAE07103094
:1001E200FD00FD0BF2280000AC0ADE280530F40009
:1001F2000030F5002D08F0002E08F1000A2008005A
:100202004F208A110A128000840AA20A0319A30A43
:08021200F003031D012908009F
:0C021A00831203139501171297120800BD
:10022600B6210430831603139F000330850087012F
:10023600860181208501870186011030FB00393057
:10024600FC000D30FD00FD0B2629FC0B2629FB0BBF
:1002560026290000000012109210C7308316920063
:100266000D21D120B930AB00972007128712071352
:100276008713AB01D9207008A9007108AA000130C4
:10028600AB00D9207008A7007108A80000307102E1
:10029600031D4F29C8307002031C702900302A0242
:1002A600031D572964302902031C70292008013ACE
:1002B600031D622907168712071387136F29200863
:1002C600023A031D6B2907128712071787136F2936
:1002D6000716871207178713A32900302A02031D62
:1002E6007629643029020318872900302802031D65
:1002F6007E29C8302702031C87290230A000071276
:10030600871207178713A32900302802031D8D299A
:10031600C830270203189E2900302A02031D95299A
:1003260064302902031C9E290130A000071687129B
:1003360007138713A329A001071687120717871328
:100346000D30FC00FB30FD00FD0BA729FC0BA72997
:08035600000000003C29AE2963
:10036C0020308400023083120313F000B430A2005A
:08037C000130A300012108007B
:0203680000345F
:02036A000F344E
:02400E00492F38
:00000001FF
